:100000000C94883E0C94B93E0C94B93E0C94B93EC5
:100010000C94B93E0C94B93E0C94B93E0C94B93E84
:100020000C94B93E0C94B93E0C94B93E0C94B93E74
:100030000C94B93E0D94BA720C94B93E0C94B93E2E
:100040000C94B93E0C94B0FB0C94B93E0C94B93EA0
:100050000C94B93E0C94B93E0D944C150D94C76B9D
:100060000C94B93E0C9479470C94B93E0C94B93E6B
:100070000C94B93E0C94B93E0C94B93E0C94B93E24
:100080000C94B93E0C94B93E0C94B93E0C94B93E14
:100090000C94B93E0C94B93E0C94B93E0C94B93E04
:1000A0000C94B93E0C94B93E0C94B93E0C94B93EF4
:1000B0000C94B93E0C94B93E0C94B93E0C94B93EE4
:1000C0000C94B93E0C94B93E0C94B93E0C94B93ED4
:1000D0000C94B93E0C94B93E0C94B93E0C94B93EC4
:1000E0000C94B93E1B01D500F900DB003501D900A5
:1000F000E30063010101FF004F0133011F01FB0019
:100100005B016B013F0149012301550111010F0101
:10011000E9004701130117013901F300FD00F10067
:100120004D0145012D011301530167015901E10002
:100130006901CF001901E500EF005F0161010B01CA
:10014000D10029014B0165015D01EF005101F5006E
:10015000E700084AD73B3BCE016E84BCBFFDC12FF0
:100160003D6C74319ABD56833DDA3D00C77F11BEA8
:10017000D9E4BB4C3E916BAAAABE000000803F05AB
:10018000A84CCDB2D44EB93836A9020C50B99186DC
:1001900088083CA6AAAA2ABE000000803F000D9451
:1001A000B36D0D94D66D0D9427620D94A7150D9423
:1001B00070400D94F9150D94D1150D943B350D94A7
:1001C0001D1D0D94C16D0D9413160D94BD6D0D94F0
:1001D000F66D0D941C6D0D94926E0D94B8560D94A1
:1001E000FB6D0D94546D0D94406D0D94F26D0D9456
:1001F000F5360D94C3150D943B430D944A6D0D9443
:100200001D160D9419160D94193F0D945C3D0D9417
:1002100098280D9482400D94D26D0D942F220D9448
:10022000126D0D940D6D0D949F6D0D943F590D94AD
:10023000306D0D94B76D0D9499150D94B0510D94CA
:100240001E430D94471B0D94B7430D9467400D94C6
:100250008B420D94DA6D0D9436250D94776D0D94C7
:1002600030320D9444670D9404430D94EB150D94B6
:10027000111D0D94386D0D94C9190D94EC1C0D943D
:1002800093430D94C04C0D942C410D946D6D0D94C1
:10029000266D0D949D430D94E06D0D945E6D0D944F
:1002A00025160D94EE6D0D94816D0D94086D0D94D1
:1002B00079400D94956D0D945A430D94E86D0D940D
:1002C000C86D0D94CC6D0D9417160D94E46D0D94BE
:1002D0008B6D0D94C46D0D9489430D94621E48611D
:1002E0007264636F6465642044656661756C742034
:1002F00053657474696E6773204C6F616465640044
:1003000053746F7265642073657474696E677320CB
:100310007265747269657665640020440020490046
:100320002020204D33303120500050494420736547
:100330007474696E67733A00205A002059002020B7
:100340004D323036205800486F6D65206F666673F9
:10035000657420286D6D293A00204500205A002040
:10036000590020580020420020540020204D3230F7
:1003700035205300416476616E6365642076617256
:100380006961626C65733A20533D4D696E20666504
:1003900065647261746520286D6D2F73292C20545B
:1003A0003D4D696E2074726176656C20666565648A
:1003B0007261746520286D6D2F73292C20423D6D6C
:1003C000696E696D756D207365676D656E742074F7
:1003D000696D6520286D73292C20583D6D61786901
:1003E0006D756D205859206A65726B20286D6D2FD0
:1003F00073292C20205A3D6D6178696D756D205AE6
:10040000206A65726B20286D6D2F73292C20204582
:100410003D6D6178696D756D2045206A65726B2050
:10042000286D6D2F73290020540020204D32303468
:10043000205300416363656C65726174696F6E3A45
:1004400020533D616363656C65726174696F6E2CE6
:1004500020543D7265747261637420616363656CDE
:1004600065726174696F6E00204500205A00205942
:100470000020204D3230312058004D6178696D7573
:100480006D20416363656C65726174696F6E2028CD
:100490006D6D2F7332293A00204500205A002059F3
:1004A0000020204D3230332058004D6178696D7541
:1004B0006D2066656564726174657320286D6D2FAB
:1004C00073293A00204500205A0020590020204D71
:1004D000393220580053746570732070657220752E
:1004E0006E69743A0053657474696E67732053744F
:1004F0006F726564005A206C6976652061646A7564
:100500007374206F7574206F662072616E67652E3C
:100510002053657474696E6720746F20302E2043F9
:100520006C69636B20746F20636F6E74696E7565A0
:100530002E005A206C6976652061646A7573742098
:100540006F7574206F662072616E67652E2053652B
:100550007474696E6720746F203000220054004963
:100560006E76616C6964205420636F64652E004967
:100570006E76616C6964204D20636F64652E004D5A
:100580003232302053256900203A2000004C414E81
:10059000472053454C20464F5243454400205A3A89
:1005A0000020593A0020453A00205A3A0020593A92
:1005B00000583A0020002E0020423A0020453A0020
:1005C000543A0020573A0020453A00543A0020425D
:1005D000403A0020403A00202F003A0020540020EA
:1005E0002F0020423A00202F006F6B20543A002544
:1005F00069206D696E2C2025692073656300496E42
:1006000076616C6964204D20636F6465004D65738D
:100610006820626564206C6576656C696E67206E23
:100620006F74206163746976652E000A00202000D3
:100630000A4D6561737572656420706F696E7473BD
:100640003A000A5A207365617263682068656967B9
:1006500068743A20002C004E756D20582C593A20B1
:1006600000206D6963726F6E730045786365737304
:1006700069766520626564206C6576656C696E6775
:1006800020636F7272656374696F6E3A200047323F
:1006900038205730000A00205A3A200020593A20CA
:1006A0000020583A2000256920686F757273202554
:1006B00069206D696E757465730054494D454F55D9
:1006C000543A004D313130004D3239002055706CB4
:1006D0006F616420696E2070726F6772657373005A
:1006E000466163746F7279205245534554004170DE
:1006F00072202035203230313700436F6D70696CC5
:1007000065643A2000286E6F6E652C206465666112
:10071000756C7420636F6E66696729004170722082
:10072000203520323031372031353A31303A3234C9
:1007300000737461727400250020202020202000A6
:100740002020202020200045524153494E4720615F
:100750006C6C206461746100466163746F7279200F
:1007600052455345540022206661696C65643A2005
:100770004275666665722066756C6C2100456E7107
:100780007565696E6720746F207468652066726F86
:100790006E743A2022002200456E717565696E679D
:1007A00020746F207468652066726F6E743A202220
:1007B0000022206661696C65643A20427566666550
:1007C000722066756C6C21002200FFFFFF0000A004
:1007D000400000A0400000004000007A4333335442
:1007E000439AD9514300000000CDCC0CC09A99190E
:1007F0003E00007A430000524300005243000000D4
:1008000000CDCC0CC09A99193E6563686F3A0045DB
:1008100072726F723A0000002110422063308440EF
:10082000A550C660E770088129914AA16BB18CC1BF
:10083000ADD1CEE1EFF13112100273325222B55236
:100840009442F772D662399318837BB35AA3BDD30F
:100850009CC3FFF3DEE36224433420040114E66406
:10086000C774A44485546AA54BB528850995EEE55F
:10087000CFF5ACC58DD55336722611163006D77616
:10088000F6669556B4465BB77AA719973887DFF7AF
:10089000FEE79DD7BCC7C448E5588668A7784008DE
:1008A000611802282338CCC9EDD98EE9AFF94889FF
:1008B00069990AA92BB9F55AD44AB77A966A711A76
:1008C000500A333A122AFDDBDCCBBFFB9EEB799B4F
:1008D000588B3BBB1AABA66C877CE44CC55C222CC6
:1008E000033C600C411CAEED8FFDECCDCDDD2AAD9F
:1008F0000BBD688D499D977EB66ED55EF44E133E56
:10090000322E511E700E9FFFBEEFDDDFFCCF1BBFEE
:100910003AAF599F788F8891A981CAB1EBA10CD1C8
:100920002DC14EF16FE18010A100C230E3200450D0
:10093000254046706760B9839893FBA3DAB33DC343
:100940001CD37FE35EF3B1029012F322D232354220
:10095000145277625672EAB5CBA5A89589856EF5D3
:100960004FE52CD50DC5E234C324A0148104667470
:10097000476424540544DBA7FAB79987B8975FE723
:100980007EF71DC73CD7D326F2369106B0165766C0
:100990007676154634564CD96DC90EF92FE9C899AB
:1009A000E9898AB9ABA94458654806782768C01810
:1009B000E1088238A3287DCB5CDB3FEB1EFBF98B83
:1009C000D89BBBAB9ABB754A545A376A167AF10A60
:1009D000D01AB32A923A2EFD0FED6CDD4DCDAABD93
:1009E0008BADE89DC98D267C076C645C454CA23CB0
:1009F000832CE01CC10C1FEF3EFF5DCF7CDF9BAF63
:100A0000BABFD98FF89F176E367E554E745E932EFF
:100A1000B23ED10EF01E7C3C3E5E2B3D3F2F5B5D17
:100A20003B2C2A225C004D383420582059205A2073
:100A300045004D3234004D3233202573006175740A
:100A40006F25692E67000A002F000A002E004465FA
:100A50006C6574696F6E206661696C65642C2046F4
:100A6000696C653A200046696C652064656C657444
:100A700065643A002E002E002E002E004E6F772067
:100A800066726573682066696C653A20004E6F7700
:100A900020646F696E672066696C653A20002220C9
:100AA000706F73002220706172656E743A22005379
:100AB0005542524F5554494E452043414C4C2074A9
:100AC00061726765743A2200747279696E67207486
:100AD0006F2063616C6C207375622D67636F646552
:100AE0002066696C6573207769746820746F6F2065
:100AF0006D616E79206C6576656C732E204D415862
:100B0000206C6576656C2069733A0057656368737D
:100B1000656C6E20536965206A65747A742064611F
:100B20007320546F6F6C20756E64207370657272E1
:100B3000656E2053696520657320696E2065696E56
:100B4000652067656569676E65746520506F7369B8
:100B500074696F6E2E204465722053706572726DD9
:100B6000656368616E69736D7573206B616E6E206D
:100B700064757263682044726568756E6720646589
:100B800073204B6E6F70666573206A757374696548
:100B900072742077657264656E2E2042657374618D
:100BA00065746967656E205369652064656E2057BA
:100BB00065636873656C206D697474656C73204B34
:100BC0006E6F7066647275636B2E004368616E674A
:100BD000652074686520746F6F6C20616E6420639B
:100BE0006C616D7020697420696E20612070726F75
:100BF00070657220706F736974696F6E2E2054680F
:100C00006520636C616D70696E67206D65636861F6
:100C10006E69736D2063616E2062652061646A7520
:100C20007374656420627920726F746174696E6791
:100C300020746865206B6E6F622E20436F6E66694C
:100C4000726D206279207072657373696E672074AB
:100C5000686520627574746F6E2E005072757361D2
:100C6000206933204D4B32202D2042696F4D6F6437
:100C7000206B6C61722E0050727573612069332095
:100C80004D4B32202D2042696F4D6F6420676F7489
:100C90006F7761005072757361206933204D4B325C
:100CA000202D2042696F4D6F6420707265702E0098
:100CB0005072757361206933204D4B32202D2042D4
:100CC000696F4D6F642070726F6E74612E00507288
:100CD000757361206933204D4B32202D2042696F9E
:100CE0004D6F64206F6B0050727573612069332003
:100CF0004D4B32202D2042696F4D6F64207265612B
:100D000064792E007A5F6D696E3A20007A5F6D61BA
:100D1000783A20005A204F666673657400795F6DDB
:100D2000696E3A2000795F6D61783A20004A61006F
:100D300054616B00536900536900416E6F0059653F
:100D40007300785F6D696E3A2000785F6D61783A64
:100D50002000205761746368646F67205265736573
:100D60007400496E666F726D6174696F6E00496ED2
:100D7000666F726D61636A65004D6F6E69746F7244
:100D8000697A61720053636865726D61746120698C
:100D90006E666F00496E666F726D61636500496EC5
:100DA000666F2073637265656E0057617274656E5D
:100DB000206175662041626B7565686C756E672091
:100DC000766F6E2048656174657220756E6420428E
:100DD00065642E004F637A656B6977616E69652083
:100DE0006E6120777963686C6F647A656E696520DF
:100DF0006479737A79206920706F646B6C61646BBD
:100E0000692E004573706572616E646F20656E6651
:100E10007269616D69656E746F206465206C612014
:100E200063616D6120792064656C206578747275EA
:100E3000736F722E00496E20617474657361206453
:100E4000656C207261666672656464616D656E745E
:100E50006F2064656C6C612074657374696E6120C9
:100E6000652064656C2070696174746F0043656B04
:100E7000616E69206E61207A63686C61646E75745E
:100E80006920747279736B79206120706F646C6F64
:100E90007A6B792E0057616974696E6720666F728C
:100EA000206E6F7A7A6C6520616E642062656420C2
:100EB000636F6F6C696E670057617274652061754E
:100EC0006620757365722E2E2E00457370657261F3
:100ED0006E646F206F7264656E6573004174746533
:100EE0006E64656E646F207574656E74650057611D
:100EF000697420666F7220757365722E2E2E004500
:100F00006E746E65686D2066696C616D656E7400E7
:100F100057796A61632066696C616D656E74005310
:100F20006F6C7461722066696C616D656E746F00C0
:100F3000536361726963612066696C616D656E748B
:100F40006F0056796A6D6F75742066696C616D65A6
:100F50006E7400556E6C6F61642066696C616D65BE
:100F60006E740046696C616D2E20617573776572D1
:100F700066656E005779737577616D2066696C617F
:100F80006D656E7400536F6C74616E646F2066697A
:100F90006C616D656E746F0052696C6173632E20B5
:100FA00066696C616D656E746F005679736F7576E6
:100FB000616D2066696C616D656E7400556E6C6F55
:100FC0006164696E672066696C616D656E74005559
:100FD0006E6B6E6F776E20636F6D6D616E643A201D
:100FE00022004665696E65696E7374656C6C656E2A
:100FF000004E617374726F696300416A7573746146
:1010000072005265676F6C61004C616469740054D2
:10101000756E65006B617274612053445B466C733E
:10102000684169725D0053442063617264205B46CD
:101030006C73684169725D006B6172746120534426
:10104000205B6E6F726D616C5D0053442063617252
:1010500064205B6E6F726D616C5D0054656D7065D0
:1010600072617475720054656D7065726174757229
:10107000610054656D7065726174757261005465CC
:101080006D7065726174757261005465706C6F7417
:10109000610054656D706572617475726500506FA2
:1010A0006D6F6300536F706F72746500506F647082
:1010B0006F726100537570706F7274004472756363
:1010C0006B2068616C74656E005A6174727A796D18
:1010D0006163206472756B00446574656E6572208F
:1010E000696D70726573696F6E00417272657374B9
:1010F00061207374616D7061005A61737461766907
:1011000074207469736B0053746F70207072696E11
:101110007400474553544F5050542E2000504152B4
:101120004144410041525245535441544F2E0053C3
:10113000544F505045442E200053746570726174B2
:101140006520746F6F20686967683A2000546F7477
:10115000616C6520447275636B7A6569743A00430B
:101160007A61732063616C6B6F77697479203A00E0
:101170005469656D706F20746F74616C203A00540F
:10118000656D706F207374616D706120746F743A57
:101190000043656C6B6F767920636173203A00546D
:1011A0006F74616C207072696E742074696D652053
:1011B0003A00546F74616C65732046696C616D65AB
:1011C0006E743A0046696C616D656E74206C616383
:1011D0007A6E6965203A0046696C616D656E746F60
:1011E00020746F74616C3A0046696C616D656E7451
:1011F0006F20746F743A0046696C616D656E74207F
:1012000063656C6B656D203A00546F74616C206689
:10121000696C616D656E74203A00447275636B7A17
:101220006569743A202000437A6173206472756B9B
:1012300075203A2020005469656D706F2064652028
:10124000696D702E3A0054656D706F20646920736B
:1012500074616D70613A00436173207469736B75DA
:10126000203A2020005072696E742074696D653ACE
:1012700020200046696C616D656E747665726272DD
:10128000617563683A0046696C616D656E74203AF9
:1012900020200046696C616D656E746F203A2020D5
:1012A0000046696C616D656E746F20757361746F53
:1012B0003A0046696C616D656E74203A20200046E4
:1012C000696C616D656E7420757365643A202000E9
:1012D00053746174697374696B656E200053746133
:1012E00074797374796B612020004573746164694B
:1012F0007374696361202000537461746973746945
:101300006368650053746174697374696B6120204C
:1013100000537461746973746963732020004572AB
:10132000726F72202D20737461746963206D656D16
:101330006F727920686173206265656E206F7665D3
:10134000727772697474656E004765736368776954
:101350006E6469676B65697400507265646B6F7366
:10136000630056656C6F63696461640056656C6FF9
:101370006369746100527963686C6F7374005370B1
:101380006565640020536F667477617265205265ED
:10139000736574004D6F646520202020205B6C65B0
:1013A0006973655D004D6F64202020202020205B44
:1013B00063696368795D004D6F646F2020205B7303
:1013C000696C656E63696F5D004D6F646F205B7360
:1013D000696C656E7A696F736F5D004D6F64202074
:1013E00020202020205B74696368795D004D6F6464
:1013F0006520202020205B73696C656E745D004D54
:101400006F6465205B486F6865204C656973745D27
:10141000004D6F64205B7720777964616A6E6F732B
:10142000635D004D6F646F205B72656E642E706C3F
:10143000656E6F5D004D6F64652020202020205B6D
:10144000666F7274655D004D6F6420205B76797302
:101450002E2076796B6F6E5D004D6F6465205B6842
:1014600069676820706F7765725D00416E7A6569A3
:1014700067656E20656E6473746F707300506F6B78
:10148000617A206B72616E636F776B6900456E7372
:10149000656E6120746F70652066696E616C0053C3
:1014A0007461746F2066696E65636F727361005357
:1014B000746176206B6F6E632E207370696E2E00E0
:1014C00053686F7720656E642073746F7073004586
:1014D000696E7374656C6C756E67656E00557374B8
:1014E000617769656E696100436F6E6669677572E1
:1014F0006163696F6E00496D706F7374617A696FB3
:101500006E69004E6173746176656E69005365742F
:1015100074696E6773005665726472616874756E83
:10152000676665686C657200426C616420706F6C00
:1015300061637A656E6961004572726F72206465DD
:1015400020636F6E6578696F6E004572726F7265A9
:10155000206361626C616767696F004368796261EB
:10156000207A61706F6A656E6900576972696E678B
:10157000206572726F720053656C62737474657368
:101580007420737461727420004175746F74657394
:10159000742073616C6964610041767669612061D1
:1015A00075746F746573740053656C66207465732D
:1015B0007420737461727420200042697474652011
:1015C0007072756566653A00536B6F6E74726F6CFE
:1015D000756A203A00436F6E74726F6C61203A0036
:1015E000566572696669636172653A005A6B6F6E1F
:1015F00074726F6C756A7465203A00506C65617323
:101600006520636865636B203A0053656C62737490
:1016100074657374204F4B004175746F74657374F7
:10162000204F4B0053656C662074657374204F4BDC
:10163000004E6963687420616E67657363686C6FE0
:101640007373656E004E696520706F646C61637AB8
:101650006F6E6F202020004E6F2068617920636FCD
:101660006E6578696F6E2020004E6F6E20636F6E1E
:101670006E6573736F004E657A61706F6A656E6F29
:1016800020202020004E6F7420636F6E6E6563749F
:1016900065640053696C6E696B004D6F746F7265A1
:1016A000004D6F746F720043616C656E742E2F5421
:1016B00065726D6973746F720052697363616C64F3
:1016C0002E2F5465726D6973742E004865617465C0
:1016D000722F546865726D6973746F72004472651D
:1016E0006874004B72656369207369650056656EA6
:1016F00074696C61646F7220676972610047697216
:101700006100546F6369207365005370696E6E6980
:101710006E67004472656874206E69636874004E79
:10172000656B72656369207369650056656E7469DF
:101730006C61646F72206E6F2067697261004E6F1A
:101740006E2073692067697261004E65746F63690A
:10175000207365004E6F74207370696E6E696E67DA
:10176000004C7565667465727465737400546573B6
:10177000742077656E74796C61746F726100546562
:1017800073742064656C2076656E74696C61646F37
:10179000720050726F76612064656C2076656E749D
:1017A000696C61746F7200546573742076656E7431
:1017B000696C61746F72750046616E207465737434
:1017C0000053656C6274657374206665686C676548
:1017D0007363686C670053656C6674657374206E20
:1017E00069657564616E79004175746F74657374B1
:1017F0002066616C6C61646F004175746F74657311
:10180000742066616C6C69746F0053656C667465F6
:1018100073742073656C68616C20200053656C667E
:1018200074657374206661696C65642020004C697E
:101830006E6B2E20486F74656E646C75656674659A
:10184000723F004C6577792077656E74206E612059
:101850006479737A653F0056656E742E20656E203C
:101860006C6120697A673F0056656E74205358207A
:1018700073756C6C277567656C6C6F3F004C657693
:10188000792076656E74206E612074727973636559
:101890003F004C65667420686F74656E64206661F5
:1018A0006E3F0053656C6274657374204665686CA6
:1018B000657221004175746F74657374206572726E
:1018C0006F7221004175746F74657374206E656763
:1018D000617469766F0053656C6674657374206516
:1018E00072726F72202100456E64206E69636874A5
:1018F00020676574726F662E00546F70652066698C
:101900006E2E206E6F20746F632E0046696E6563C5
:101910002E2066756F726920706F722E00456E649E
:1019200073746F70206E6F742068697400546F70E8
:1019300065732066696E616C0046696E65636F72DF
:1019400073612028322900456E6473746F707300D0
:10195000546F70652066696E616C0046696E6563E0
:101960006F72736100456E6473746F7000566F72AE
:10197000642E2046726F6E746C7565667465723F76
:101980000050727A6F646E692077656E742E2064E1
:1019900072756B753F0056656E742E20616C206603
:1019A00072656E74653F0056656E742064692073BD
:1019B00074616D706120616E742E3F0050726564B9
:1019C0006E69207469736B6F76792076656E743FEB
:1019D0000046726F6E74207072696E742066616E5C
:1019E0003F005072FE205A2041636873652020201A
:1019F00020004B6F6E74726F6C61205A20617869A1
:101A000073202000436F6E74726F6C2064656C20CD
:101A1000656A65205A00566572696669636120616E
:101A2000737365205A004B6F6E74726F6C61205A2D
:101A30002061786973202000436865636B696E6775
:101A4000205A20617869732020005072FE205920AE
:101A5000416368736520202020004B6F6E74726FA5
:101A60006C6120592061786973202000436F6E7487
:101A7000726F6C2064656C20656A6520590056653C
:101A800072696669636120617373652059004B6FE9
:101A90006E74726F6C612059206178697320200028
:101AA000436865636B696E672059206178697320AC
:101AB00020005072FE20582041636873652020206A
:101AC00020004B6F6E74726F6C61205820617869D2
:101AD00073202000436F6E74726F6C2064656C20FD
:101AE000656A6520580056657269666963612061A0
:101AF0007373652058004B6F6E74726F6C61205861
:101B00002061786973202000436865636B696E67A4
:101B1000205820617869732020005072FE20686F81
:101B200074656E642020202020004B6F6E74726FED
:101B30006C6120686F74656E64202000436F6E7462
:101B4000726F6C20686F74656E64200056657269F0
:101B500066696361207567656C6C6F004B6F6E74AE
:101B6000726F6C6120686F74656E6420200043683A
:101B700065636B696E6720686F74656E6420200012
:101B80005072FE20656E6473746F707320202000A5
:101B90004B6F6E74726F6C6120656E6473746F70DE
:101BA0007300436F6E742E20746F706573206669C6
:101BB0006E616C0056657269666963612066696E64
:101BC00065636F727361004B6F6E74726F6C61202E
:101BD000656E6473746F707300436865636B696EE0
:101BE0006720656E6473746F7073005072FE2042DC
:101BF00065642020202020202020004B6F6E74720E
:101C00006F6C6120626564202020202000436F6E8D
:101C100074726F6C2064652063616D61005665723B
:101C20006966696361206C6574746F004B6F6E74D4
:101C3000726F6C6120626564202020202000436860
:101C400065636B696E672062656420202020200038
:101C5000416C6C6573207269636874696720202029
:101C6000200057737A7973746B6F204F4B202020BC
:101C700020202000546F646F2062696520004E654B
:101C80007373756E206572726F726500567365208E
:101C90004F4B202020202020202020202000416C9D
:101CA0006C20636F727265637420202020202000F6
:101CB00043616D612F43616C656E7461646F720086
:101CC0004C6574746F2F52697363616C642E0042AB
:101CD0006564202F204865617465720053656C62ED
:101CE00073747465737420202020202020004175B7
:101CF000746F74657374004175746F7465737400E8
:101D000053656C6674657374202020202020202089
:101D1000200057726974696E6720746F2066696C61
:101D2000653A2000766F6C756D652E696E6974205A
:101D30006661696C6564002053697A653A200053D6
:101D40004420656E746665726E7420004B61727417
:101D5000612077796A657461005461726A657461A3
:101D60002072657469726164610053442072696D08
:101D70006F737361004B617274612076796A6D755F
:101D8000746100436172642072656D6F76656400F2
:101D90005344207072696E74696E6720627974654D
:101DA00020006F70656E206661696C65642C20464A
:101DB000696C653A20006F70656E526F6F742066B3
:101DC00061696C65640053442065696E676573657D
:101DD000747A74004B6172746120776C6F7A6F6EE5
:101DE00061005461726A65746120696E7365727412
:101DF00061646100534420696E73657269746100A7
:101E00004B6172746120766C6F7A656E610043611C
:101E1000726420696E73657274656400534420694E
:101E20006E6974206661696C0046696C6520736533
:101E30006C65637465640046696C65206F70656EDF
:101E400065643A20006572726F72207772697469F6
:101E50006E6720746F2066696C650053442063616F
:101E60007264206F6B0043616E6E6F74206F7065DB
:101E70006E207375626469720043616E6E6F7420C8
:101E8000656E746572207375626469723A200044ED
:101E90007275636B20666F727467657365747A74AC
:101EA00000577A6E6F7769656E6965206472756B2D
:101EB0007500526573756D69656E646F20696D702C
:101EC000726573696F6E0052697072656E64692025
:101ED0007374616D7061004F626E6F76656E69201C
:101EE0007469736B7500526573756D696E672070E8
:101EF00072696E7400466F72747365747A656E00F1
:101F00004B6F6E74796E756F776163005265616EA9
:101F10007564617220696D707265732E005269700C
:101F200072656E6469207374616D706100506F6BCF
:101F30007261636F76617400526573756D652070B0
:101F400072696E7400526573656E643A2000686F42
:101F500077746F2E707275736133642E637A0068C4
:101F60006F77746F2E707275736133642E637A00AD
:101F7000686F77746F2E707275736133642E636F40
:101F80006D00666F72756D2E707275736133642E9D
:101F9000637A00666F72756D2E707275736133644B
:101FA0002E637A00666F72756D2E70727573613371
:101FB000642E636F6D00707275736133642E637A83
:101FC00000707275736133642E637A00707275737A
:101FD0006133642E636F6D00447275636B206162C0
:101FE000676562726F6368656E004472756B20701E
:101FF000727A657277616E7900496D707265736986
:102000006F6E2063616E63656C616461005374611F
:102010006D70612061626F727469746100546973DC
:102020006B20707265727573656E005072696E74A4
:102030002061626F7274656400756E64204B6E6F10
:1020400070662064727565636B656E004E616369CE
:10205000736E696A2070727A796369736B00507568
:102060006C73617220656C206D616E646F00652019
:10207000636C696363617265206D616E6F706F6C14
:1020800061006120737469736B6E65746520746C94
:10209000616369746B6F00616E6420707265737345
:1020A00020746865206B6E6F6200576F7277616590
:1020B000726D656E204475657365004E6167727A56
:1020C000656A206479737A65210050726563616C7A
:1020D000656E746172206578747275736F720050EA
:1020E00072657269732E207567656C6C6F21005084
:1020F000726564656872656A746520747279736B61
:102100007521005072656865617420746865206E81
:102110006F7A7A6C652100566F72776165726D65B2
:102120006E0047727A616E69650050726563616C1A
:10213000656E7461720050726572697363616C647C
:1021400061005072656465687265760050726568FA
:1021500065617400506F77657255700042697474E0
:10216000652077617274656E0050726F737A6520B6
:10217000637A656B616300506F72204661766F729F
:10218000204573706572617200417370657474618B
:102190000050726F73696D2063656B656A746500CA
:1021A000506C656173652077616974002020506C04
:1021B000616E6E65724275666665724279746573AA
:1021C0003A2000447275636B206175737365747A8D
:1021D000656E0050727A6572776163206472756B08
:1021E0000050617573617220696D70726573696FFB
:1021F0006E004D6574746920696E2070617573613D
:1022000000506F7A61737461766974207469736BBE
:10221000005061757365207072696E74004C65675B
:10222000656E2065696E20426C6174742050617027
:1022300069657220756E74657220646965204475E5
:10224000657365207761656872656E642064657288
:10225000204B616C696272696572756E6720646596
:10226000722065727374656E20342050756E6B74C5
:10227000652E2057656E6E20646965204475657310
:102280006520646173205061706965722065696EB4
:102290006661656E67742C20447275636B6572208D
:1022A000736F666F727420617573736368616C74A9
:1022B000656E00556D69657363206B6172746B6543
:1022C0002070617069657275206E6120706F646B3B
:1022D0006C6164636520692074727A796D616A202B
:1022E000706F64206479737A6120706F64637A61BF
:1022F0007320706F6D696172752070696572777394
:102300007A79636820342070756E6B746F772E2035
:102310004A65736C69206479737A61207A616861B7
:10232000637A79206F207061706965722C207779EB
:102330006C61637A206472756B61726B652E004309
:102340006F6C6F63617220756E6120686F6A6120C7
:10235000646520706170656C20736F627265206CBB
:1023600061207375706572666963696520646520B4
:10237000696D70726573696F6E20647572616E74D9
:1023800065206C612063616C6962726163696F6E64
:10239000206465206C6F73207072696D65726F7355
:1023A00020342070756E746F732E205369206C6119
:1023B00020626F7175696C6C61206D756576652042
:1023C000656C20706170656C2C2061706167617252
:1023D00020696D707265736F726120696E6D6564DE
:1023E000696174616D656E74652E00506F727265FF
:1023F00020756E20666F676C696F20736F74746FE1
:10240000206C277567656C6C6F20647572616E74E3
:1024100065206C612063616C696272617A696F6EBC
:102420006520646569207072696D6920342070755B
:102430006E74692E20496E206361736F206C27755E
:1024400067656C6C6F206D756F766120696C2066B6
:102450006F676C696F20737065676E657265207059
:10246000726F6E74616D656E7465206C612073743B
:10247000616D70616E74652E00556D69737465745D
:1024800065206C69737420706170697275206E616B
:1024900020706F646C6F7A6B752061207564727A3E
:1024A000756A7465206A656A20706F642074727939
:1024B000736B6F7520626568656D206D6572656E02
:1024C00069207072766E696368203420626F64756B
:1024D0002E20506F6B756420747279736B61207A53
:1024E0006163687974692070617069722C207679F3
:1024F000706E657465207469736B61726E752E0001
:10250000506C6163652061207368656574206F6637
:1025100020706170657220756E64657220746865E4
:10252000206E6F7A7A6C6520647572696E672074AC
:1025300068652063616C6962726174696F6E206F97
:1025400066206669727374203420706F696E7473CC
:102550002E20496620746865206E6F7A7A6C65203B
:102560006361746368657320746865207061706569
:10257000722C20706F776572206F666620746865B4
:10258000207072696E74657220696D6D6564696131
:1025900074656C792E006F6B004F6666004B656941
:1025A0006E65204265776567756E672E0053696EAC
:1025B000206D6F76696D69656E746F004E6573731B
:1025C000756E206D6F76696D656E746F2E004E6F3F
:1025D000206D6F76652E004B65696E652053442033
:1025E0004B61727465004272616B206B6172747929
:1025F000205344004E6F20686179207461726A65CF
:102600007461205344004E657373756E61205344AA
:10261000005A61646E61205344206B6172746100E2
:102620004E6F205344206361726400447565736586
:10263000004479737A6100426F7175696C6C610056
:102640005567656C6C6F00547279736B61004E6FE7
:102650007A7A6C650046696C616D2E206E696368DC
:10266000742067656C6164656E004272616B206600
:10267000696C616D656E74750046696C2E206E6FB5
:1026800020696E74726F64756369646F0046696C6B
:102690002E206E6F6E20636172696361746F0046F5
:1026A000696C616D656E74206E657A6176656465CE
:1026B0006E0046696C616D656E74206E6F74206C7F
:1026C0006F61646564004661726265206E6963686B
:1026D00074206B6C6172004B6F6C6F72207A616E4C
:1026E0006965637A79737A2E00436F6C6F72206E1E
:1026F0006F20686F6D6F67656E656F00436F6C6FFD
:102700007265206E6F6E207075726F004261727616
:1027100061206E656E6920636973746100436F6C3C
:102720006F72206E6F7420636C656172004E656914
:102730006E004E6965004E65004E6F00426974740C
:102740006520616B7475616C6973696572656E2E65
:102750000050726F737A65207A616B7475616C6971
:102760007A6F7761630041637475616C697A617235
:1027700020706F72206661766F72005072656761BB
:1027800020616767696F726E612E0050726F7369A6
:102790006D20616B7475616C697A756A74652E0061
:1027A000506C6561736520757067726164652E0099
:1027B0004E657565204669726D7761726520566554
:1027C0007273696F6E207665726675656762617295
:1027D0003A005779737A6C61206E6F776120776564
:1027E00072736A61206669726D776172653A004E34
:1027F0007565766F206669726D77617265206469B0
:1028000073706F6E69626C653A004E756F76612009
:1028100076657273696F6E652064656C2066697297
:102820006D7761726520646973706F6E6962696C3F
:1028300065005679736C61206E6F766120766572E3
:102840007A65206669726D776172653A004E6577C8
:10285000206669726D776172652076657273696F43
:102860006E20617661696C61626C653A00426577E1
:10287000656765205A0050727A6573756E616320D2
:102880005A004D6F766572205A004D756F7669203B
:102890005A00506F73756E6F7574205A004D6F76C5
:1028A00065205A0042657765676520590050727A45
:1028B0006573756E61632059004D6F76657220599E
:1028C000004D756F7669205900506F73756E6F7586
:1028D000742059004D6F7665205900426577656711
:1028E0006520580050727A6573756E6163205800D8
:1028F0004D6F7665722058004D756F7669205800CF
:10290000506F73756E6F75742058004D6F7665202B
:10291000580045787472756972004D756F7669203C
:102920004573747275736F7265004578747275645F
:102930006572004B616C696272696572656E2076C2
:102940006F6E205A2E2044726568656E205369654B
:102950002064656E204B6E6F70662C20756D206450
:10296000656E205A2D5363686C697474656E2062BD
:102970006973207A756D20416E7363686C6167209E
:102980007A75206265776567656E2E204B6C69638A
:102990006B656E2077656E6E206665727469672E52
:1029A000004B616C69627261636A61205A2E20502B
:1029B000727A656B7265632067616C6B652C206150
:1029C00062792070727A6573756E6163206F73200F
:1029D0005A20646F20676F726E796368206B726132
:1029E0006E636F77656B2E204E616369736E696AE3
:1029F0002C20627920706F7477696572647A6963DC
:102A00002E0043616C696272616E646F205A2E20E1
:102A10004769726120656C20626F746F6E2070610F
:102A2000726120737562697220656C2063617272D5
:102A30006F205A20686173746120676F6C70652025
:102A40007069657A6173207375706572696F726100
:102A5000732E20446573707565732068617A2063F6
:102A60006C69632E0043616C696272617A696F6E92
:102A700065205A2E2052756F74617265206C61203A
:102A80006D616E6F706F6C612070657220616C7A21
:102A900061726520696C2063617272656C6C6F2075
:102AA0005A2066696E6F20616C6C27616C74657A60
:102AB0007A61206D617373696D612E20436C696367
:102AC0006B20706572207465726D696E6172652E1F
:102AD000004B616C696272616365205A2E204F74ED
:102AE0006163656E696D20746C616369746B6120EC
:102AF000706F73756E7465205A206F737520617ADC
:102B0000206B7E686F726E696D7520646F72617A7A
:102B1000752E20506F74767264746520746C6163D6
:102B200069746B656D2E0043616C696272617469D2
:102B30006E67205A2E20526F746174652074686528
:102B4000206B6E6F6220746F206D6F7665207468E5
:102B500065205A2063617272696167652075702013
:102B6000746F2074686520656E642073746F707074
:102B70006572732E20436C69636B207768656E20E5
:102B8000646F6E652E004B616C6962726965726577
:102B90006E20766F6E2058595A2E204472656865F3
:102BA0006E205369652064656E204B6E6F70662CD5
:102BB00020756D2064656E205A2D5363686C6974AE
:102BC00074656E20626973207A756D20416E73633F
:102BD000686C6167207A75206265776567656E2E1F
:102BE000204B6C69636B656E2077656E6E20666541
:102BF000727469672E004B616C69627261636A610D
:102C00002058595A2E2050727A656B72656320677E
:102C1000616C6B652C206162792070727A657375C6
:102C20006E6163206F73205A20646F20676F726E2D
:102C3000796368206B72616E636F77656B2E204ECF
:102C4000616369736E696A2C20627920706F747792
:102C5000696572647A69632E0043616C69627261AE
:102C60006E646F2058595A2E204769726120656C36
:102C700020626F746F6E207061726120737562697B
:102C80007220656C20636172726F205A20686173D4
:102C9000746120676F6C7065207069657A6173205C
:102CA0007375706572696F7261732E2044657370FD
:102CB0007565732068617A20636C69632E004361D7
:102CC0006C696272617A696F6E652058595A2E205C
:102CD00052756F74617265206C61206D616E6F70EA
:102CE0006F6C612070657220616C7A617265206919
:102CF0006C2063617272656C6C6F205A2066696E1D
:102D00006F20616C6C27616C74657A7A61206D61EB
:102D10007373696D612E20436C69636B20706572FB
:102D2000207465726D696E6172652E004B616C690D
:102D300062726163652058595A2E204F7461636531
:102D40006E696D20746C616369746B6120706F7360
:102D5000756E7465205A206F737520617A206B7EC2
:102D6000686F726E696D7520646F72617A752E205E
:102D7000506F74767264746520746C616369746BEF
:102D8000656D2E0043616C6962726174696E6720C3
:102D900058595A2E20526F746174652074686520EA
:102DA0006B6E6F6220746F206D6F7665207468653E
:102DB000205A2063617272696167652075702074A2
:102DC0006F2074686520656E642073746F70706521
:102DD00072732E20436C69636B207768656E206484
:102DE0006F6E652E00426577656765204163687385
:102DF000650052756368206F7369004D6F76657268
:102E000020656A6573004D756F766920617373651F
:102E100000506F73756E6F7574206F7375004D6F12
:102E200076652061786973004D657368206C6976FA
:102E3000656C2E206C6574746F004D65736820425C
:102E40006564204C6576656C696E67004B616C69E2
:102E50006272696572756E67004B616C696272615E
:102E6000636A610043616C6962726163696F6E00DD
:102E700043616C696272617A696F6E65004B616C67
:102E80006962726163650043616C69627261746951
:102E90006F6E0020766F6E203900207A2039002076
:102EA0006465203900207375203900207A203900AC
:102EB000206F662039004D657373656E20646572FE
:102EC000205265666572656E7A686F656865206414
:102ED0006573204B616C69627269657270756E6BA7
:102EE000746573004F6B7265736C616D20777973D5
:102EF0006F6B6F7363206F646E69657369656E696C
:102F0000612070756E6B7475206B616C69627261A3
:102F100063796A6E65676F004D65646972206C61E4
:102F200020616C747572612064656C2070756E74BC
:102F30006F206465206C612063616C6962726163FB
:102F4000696F6E004D69737572617265206C2761DF
:102F50006C74657A7A612064692072696665726949
:102F60006D656E746F2064656C2070756E746F2073
:102F700064692063616C696272617A696F6E650071
:102F80004D6572696D207265666572656E636E6906
:102F9000207679736B75206B616C69627261636E08
:102FA00069686F20626F6475004D65617375726941
:102FB0006E67207265666572656E63652068656917
:102FC000676874206F662063616C696272617469FE
:102FD0006F6E20706F696E740048617570746D65F6
:102FE0006E7565004D656E7520676C6F776E650058
:102FF0004D656E75207072696E636970616C004D0D
:10300000656E75207072696E636970616C650048E9
:103010006C61766E69206E616269646B61004D61FE
:10302000696E004D32323120496E76616C696420E0
:10303000657874727564657220004D3231382049AC
:103040006E76616C6964206578747275646572204F
:10305000004D32303020496E76616C6964206578AD
:1030600074727564657220005265706F7274696E57
:103070006720656E6473746F702073746174757308
:10308000004649524D574152455F4E414D453A4DDC
:1030900061726C696E2056312E302E323B20537097
:1030A00072696E7465722F6772626C206D617368ED
:1030B000757020666F722067656E36204649524DE6
:1030C000574152455F55524C3A68747470733A2FA9
:1030D0002F6769746875622E636F6D2F70727573D8
:1030E0006133642F50727573612D69332D506C7587
:1030F000732F2050524F544F434F4C5F56455253FD
:10310000494F4E3A312E30204D414348494E455F9C
:10311000545950453A5072757361206933204D4BB4
:1031200032202D2042696F4D6F642045585452550E
:103130004445525F434F554E543A3120555549440A
:103140003A30303030303030302D303030302D307B
:103150003030302D303030302D3030303030303075
:1031600030303030300A004D31303920496E7661D0
:103170006C696420657874727564657220004D31E5
:10318000303520496E76616C69642065787472759B
:1031900064657220004D31303420496E76616C696F
:1031A0006420657874727564657220004C6F736575
:1031B000205269656D656E73636865692E004B6F9B
:1031C0006C6F207061736F776500506F6C65612064
:1031D0007375656C74610050756C65676769612013
:1031E0006C656E74610055766F6C6E656E612072F1
:1031F000656D656E69636B61004C6F6F7365207000
:10320000756C6C6579004C6567652046696C616D0D
:10321000656E742065696E005770726F7761647AAD
:103220002066696C616D656E7400496E74726F64BE
:10323000756369722066696C616D2E004361726905
:1032400063612066696C616D656E746F005A6176AA
:103250006573742066696C616D656E74004C6F6196
:10326000642066696C616D656E740046696C616DA1
:10327000656E742D45696675656872756E67005771
:1032800070726F772E2066696C616D656E74750063
:10329000496E74726F64756369656E646F206669E8
:1032A0006C616D2E004361726963616E646F2066AC
:1032B000696C616D2E005A61766164656E69206685
:1032C000696C616D656E7475004C6F6164696E67E1
:1032D0002066696C616D656E74004C6164652046A2
:1032E0006172626500437A79737A637A2E206B6F1C
:1032F0006C6F72750043616D6269616E646F20630B
:103300006F6C6F72004361726963616E646F2063FA
:103310006F6C6F72650043697374656E69206261DA
:10332000727679004C6F6164696E6720636F6C6FB1
:103330007200576165686C652053707261636865DF
:10334000005779626F72206A657A796B6100436118
:103350006D6269616520656C206964696F6D6100EB
:1033600053656C657A696F6E61206C696E67756113
:10337000005679626572206A617A796B61005365E3
:103380006C656374206C616E677561676500446588
:10339000757473636800506F6C736B69004573706C
:1033A000616E6F6C004974616C69616E6F0043659A
:1033B0007374696E6100456E676C69736800504193
:1033C0005241444120444520454D455247454E43D6
:1033D000494100494E2054494C542E004B494C4C15
:1033E00045442E2000496E76616C696420657874CE
:1033F00072756465720046696C616D656E742065F6
:10340000696E6C6567656E005770726F7761647A7C
:103410002066696C616D656E7400496E74726F64CC
:10342000756369722066696C616D656E746F0049C1
:103430006E7365726972652066696C616D656E7424
:103440006F00566C6F7A74652066696C616D656E8D
:103450007400496E736572742066696C616D656E87
:10346000740020766F6E203900207A2039002064A5
:1034700065203900207375203900207A203900201A
:103480006F66203900566572626573736572756E7A
:103490006720426564204B616C6962726965727075
:1034A000756E6B7400506F7072617769616D20701A
:1034B000726563797A796A6E6F73632070756E6B6B
:1034C0007475206B616C6962726163796A6E65679D
:1034D0006F004D656A6F72616E646F2063616D612C
:1034E0002070756E746F2064652063616C69627210
:1034F0006163696F6E0050657266657A696F6E2EE2
:1035000020696C206C6574746F2070756E746F2008
:1035100064692063616C696272617A2E005A6C651D
:103520007073756A6920707265736E6F7374206B47
:10353000616C69627261636E69686F20626F647545
:1035400000496D70726F76696E67206265642063F2
:10355000616C6962726174696F6E20706F696E74FC
:10356000004B616C69627269657265205A004B613B
:103570006C696272756A65205A0043616C69627297
:10358000616E646F205A0043616C696272616E649F
:103590006F205A004B616C696272756A69205A002B
:1035A00043616C6962726174696E67205A004B6195
:1035B0006C696272696572756E67204F4B004B6172
:1035C0006C69627261636A61204F4B0043616C6990
:1035D00062726163696F6E204F4B0043616C696278
:1035E00072617A696F6E65204F4B004B616C696246
:1035F00072616365204F4B0043616C696272617454
:10360000696F6E20646F6E65004B616C69627269F0
:103610006572656E205A004B616C696272756A2032
:103620005A0043616C6962726172205A0043616C96
:1036300069627261205A004B616C6962726F7661D7
:1036400074205A0043616C696272617465205A008B
:103650004572776165726D656E204F4B0047727AD7
:10366000616E6965204F4B2E0043616C656E74611D
:103670006D69656E746F2066696E616C2E005269AB
:103680007363616C642E20636F6D706C65746F0082
:103690005A6168726976616E69204F4B2E004865E9
:1036A0006174696E6720646F6E652E004572776184
:1036B00065726D656E0047727A616E69652E2E2E99
:1036C0000043616C656E74616E646F2E2E2E005225
:1036D000697363616C64616D656E746F2E2E2E006C
:1036E0005A6168726976616E690048656174696ED5
:1036F00067002046726565204D656D6F72793A20CE
:103700000044657220447275636B65722077757230
:103710006465206E6F6368206E69636874206B61F6
:103720006C696272696572742E20426974746520D6
:10373000666F6C67656E205369652064656D20480F
:10374000616E64627563682C204B61706974656C8E
:103750002046697273742073746570732C20416203
:103760007363686E6974742043616C69627261741A
:10377000696F6E20666C6F772E004472756B617294
:103780006B61206E6965207A6F7374616C61206A69
:1037900065737A637A6520736B616C6962726F77A7
:1037A000616E612E2050726F737A65206B6965724D
:1037B0006F7761632073696520696E737472756BCE
:1037C000636A612C20726F7A647A69616C205A6135
:1037D000637A796E616D792C20706F64726F7A6490
:1037E0007A69616C2053656C66746573742E004948
:1037F0006D707265736F7261206E6F206573746196
:103800002063616C69627261646120746F646176C7
:1038100069612E20506F72206661766F7220757319
:10382000617220656C206D616E75616C2C20656C19
:10383000206361706974756C6F20466972737420BF
:1038400073746570732C2073656C656363696F6E48
:103850002043616C6962726174696F6E20666C6F7F
:10386000772E005374616D70616E746520616E63B4
:103870006F7261206E6F6E2063616C696272617439
:10388000612E20536920707265676120646920731E
:1038900065677569726520696C206D616E75616C14
:1038A000652C2063617069746F6C6F205052494DB4
:1038B000492050415353492C2073657A696F6E65D6
:1038C0002064656C6C612063616C696272617A6905
:1038D0006F6E652E005469736B61726E61206E6548
:1038E00062796C61206A65737465207A6B616C69BA
:1038F00062726F76616E612E20506F737475707591
:103900006A74652070726F73696D20706F646C6586
:10391000206D616E75616C752C206B617069746FC0
:103920006C61205A6163696E616D652C206F6473F0
:10393000746176656320506F73747570206B616C71
:103940006962726163652E005072696E74657220DF
:10395000686173206E6F74206265656E2063616CB0
:1039600069627261746564207965742E20506C659B
:1039700061736520666F6C6C6F7720746865206D6D
:10398000616E75616C2C206368617074657220468D
:10399000697273742073746570732C20736563741B
:1039A000696F6E2043616C6962726174696F6E2029
:1039B000666C6F772E004475726368666C757373FE
:1039C0000050727A65706C797700466C756A6F008A
:1039D000466C7573736F00507275746F6B00466C34
:1039E0006F770020766F6E203400207A203400201C
:1039F0006465203400207375203400207A20340060
:103A0000206F6620340053756368656E20426564DC
:103A1000204B616C69627269657270756E6B7400BF
:103A2000537A756B616D2070756E6B7475206B6168
:103A30006C6962726163796A6E65676F20706F642A
:103A40006B6C61646B690042757363616E646F20B7
:103A500063616D612070756E746F206465206361B1
:103A60006C6962726163696F6E005269636572634B
:103A7000612064656C206C6574746F2070756E7461
:103A80006F2064692063616C696272617A2E0048FC
:103A90006C6564616D206B616C69627261636E69F3
:103AA00020626F6420706F646C6F7A6B790053656D
:103AB00061726368696E67206265642063616C6926
:103AC00062726174696F6E20706F696E7400446F0A
:103AD0006E6520736176696E672066696C652E007D
:103AE000446F6E65207072696E74696E67206669D6
:103AF0006C6500497374204661726265206B6C616D
:103B0000723F00437A79206B6F6C6F72206A657325
:103B10007420637A797374793F00457320656C2053
:103B20006E7565766F20636F6C6F72206E69746955
:103B3000646F3F00496C20636F6C6F72652065276E
:103B4000206E697469646F3F004A65206261727615
:103B5000612063697374613F00497320636F6C6F08
:103B60007220636C6561723F005765636873656CB2
:103B70002066696C616D656E740057796D69656E5C
:103B800069632066696C616D656E740043616D6286
:103B90006961722066696C616D656E746F00436166
:103BA0006D622E2066696C616D656E746F0056796A
:103BB0006D656E69742066696C616D656E74004335
:103BC00068616E67652066696C616D656E74004C36
:103BD0007565667465726765736368772E005072E9
:103BE00065646B6F73632077656E742E0056656C29
:103BF0006F63696461642056656E742E0056656C4F
:103C00006F636974612076656E742E005279636803
:103C10006C6F73742076656E742E0046616E20732F
:103C20007065656400656E717565696E6720220058
:103C30002045787465726E616C20526573657400FE
:103C40005072696E7465722073746F707065642051
:103C500064756520746F206572726F72732E2046D2
:103C6000697820746865206572726F7220616E6475
:103C700020757365204D39393920746F2072657352
:103C8000746172742E202854656D7065726174754C
:103C900072652069732072657365742E2053657494
:103CA0002069742061667465722072657374617234
:103CB00074696E6729004E6F204C696E65204E75E1
:103CC0006D626572207769746820636865636B73E1
:103CD000756D2C204C617374204C696E653A200020
:103CE0004E6F20436865636B73756D2077697468E8
:103CF000206C696E65206E756D6265722C204C615A
:103D00007374204C696E653A200020746F6F206CCC
:103D10006F6E6720657874727573696F6E2070724C
:103D20006576656E746564004C696E65204E756DD0
:103D3000626572206973206E6F74204C6173742009
:103D40004C696E65204E756D6265722B312C204C6E
:103D5000617374204C696E653A20005072696E740C
:103D600065722068616C7465642E206B696C6C28C8
:103D7000292063616C6C6564210020636F6C642092
:103D8000657874727573696F6E2070726576656E92
:103D900074656400636865636B73756D206D69732A
:103DA0006D617463682C204C617374204C696E657E
:103DB0003A20004645484C45523A00424C41443A6C
:103DC000004552524F52453A0043485942413A0049
:103DD0004552524F523A00456E642066696C652028
:103DE0006C697374006F70656E00545249474745A3
:103DF00052454400656E6473746F70732068697413
:103E00003A20005363686C61662E2E2E00456E20AA
:103E100065737065726100536F7370656E73696F5F
:103E20006E652E2E2E00536C6565702E2E2E00446E
:103E300065616B74697669657265204D6F746F7228
:103E40000057796C61637A79632073696C6E696B72
:103E50006900417061676172206D6F746F72657384
:103E6000004469736162696C6974206D6F746F726C
:103E700069005679706E6F7574206D6F746F72790A
:103E80000044697361626C6520737465707065725B
:103E9000730020436F756E7420583A200057656395
:103EA0006873656C206F6B3F0057796D69616E6157
:103EB000206F6B3F0043616D626961646F20636FC7
:103EC00072726563742E3F0043616D626961746F45
:103ED00020636F72722E3F0056796D656E61206FA0
:103EE0006B3F004368616E67656420636F72726543
:103EF00063746C793F0041626B7565686C656E0038
:103F0000577963686C6F647A696300456E6672699D
:103F1000617200526166667265646461005A63682A
:103F20006C6164697400436F6F6C646F776E0042FC
:103F300069747465207265696E6967656E2053697E
:103F400065206469652044817365207A7572204B11
:103F5000616C696272696572756E672E204B6C695F
:103F6000636B656E2077656E6E2066657274696737
:103F70002E00446C61207072617769646C2E206B36
:103F8000616C69627261636A692070726F737A65CD
:103F9000206F637A7973636963206479737A652E1D
:103FA00020506F74772E2067757A696B69656D2E66
:103FB000004C696D7069617220626F7175696C6C1B
:103FC0006120706172612063616C69627261636912
:103FD0006F6E2E20436C69636B206375616E646F36
:103FE000206163616265732E0050756C6972652093
:103FF0006C277567656C6C6F20706572206C612032
:1040000063616C696272617A696F6E652C20706F92
:1040100069206661726520636C69636B2E00507263
:104020006F2075737065736E6F75206B616C69625C
:1040300072616369206F636973746574652070725F
:104040006F73696D207469736B6F766F752074720E
:1040500079736B752E20506F74767264746520745A
:104060006C616369746B656D2E00506C656173657E
:1040700020636C65616E20746865206E6F7A7A6C5F
:104080006520666F722063616C6962726174696F2A
:104090006E2E20436C69636B207768656E20646FB9
:1040A0006E652E0053696E64205A2D5363686C69E7
:1040B0007474656E2067616E7A206F62656E3F0072
:1040C0004F626120776F7A6B6920646F6A656368FD
:1040D000616C7920646F20676F726E656A2072610F
:1040E0006D793F00436172726F73205A20697A7153
:1040F0002E2F6465722E20657374616E206172725A
:10410000696261206D6178696D6F3F00492063616C
:104110007272656C6C69205A2073696E2F646573C6
:1041200020736F6E6F20616C74657A7A61206D61A7
:10413000783F00446F6A656C79206F6261205A2075
:10414000766F7A696B79206B7E686F726E696D75B8
:1041500020646F72617A753F00417265206C6566FC
:104160007420616E64207269676874205A7E63618E
:104170007272696167657320616C6C2075703F00B5
:10418000204C61737420557064617465643A20003A
:104190005765636873656C206572666F6C67722E15
:1041A000210057796D69616E61206F6B2100436159
:1041B0006D62696F20636F72726563746F00436133
:1041C0006D62696F20726975736369746F21005A3B
:1041D0006D656E612075737065736E612100436853
:1041E000616E676520737563636573732100447244
:1041F00075636B656E20766F6E2053440044727554
:104200006B207A205344004D656E75207461726A8C
:10421000657461205344005374616D706120646162
:10422000205344005469736B207A20534400507229
:10423000696E742066726F6D205344005265736519
:10424000742058595A204B616C6962722E00526575
:10425000736574206B616C6962722E2058595A0024
:1042600052657365742058595A206B616C6962728B
:104270002E0052657365742058595A2063616C6929
:1042800062722E004B616C696272696572756E674D
:104290002058595A004B616C69627261636A6120EF
:1042A00058595A0043616C696272612058595A002A
:1042B00043616C696272612058595A004B616C69A4
:1042C00062726163652058595A0043616C69627279
:1042D0006174652058595A002042726F776E206FC2
:1042E000757420526573657400426567696E206657
:1042F000696C65206C6973740058595A2D4B616C58
:10430000696272696572756E6720756E67656E6148
:10431000752E204C696E6B657220766F72646572C3
:104320006572204B616C69627269657270756E6B43
:104330007420697374207A752077656974206E61C2
:10434000636820766F726E652E004B616C696272D5
:1043500061636A612058595A206E6965646F6B6C9D
:1043600061646E612E204C6577792070727A656485
:104370006E692070756E6B74207A6279742077791B
:1043800073756E6965747920646F2070727A6F64DA
:10439000752E0043616C696272617A696F6E205894
:1043A000595A20636F6D70726F6D65746964612E08
:1043B0002050756E746F2064656C616E7465726FE9
:1043C00020697A7175696572646F206E6F20616C07
:1043D00063616E7A61626C652E0043616C69627222
:1043E000617A696F6E652058595A20636F6D7072DB
:1043F0006F6D657373612E2050756E746F20616EE2
:10440000746572696F72652073696E697374726F17
:10441000206E6F6E207261676769756E6769626989
:104420006C652E004B616C6962726163652058593E
:104430005A206E65707265736E612E204C657679B8
:1044400020707265646E6920626F64206D6F6320F6
:104450007670726564752E0058595A2063616C69D4
:1044600062726174696F6E20636F6D70726F6D69D7
:104470007365642E204C6566742066726F6E7420BE
:1044800063616C6962726174696F6E20706F696ECE
:1044900074206E6F7420726561636861626C652E52
:1044A0000058595A2D4B616C696272696572756E5C
:1044B0006720756E67656E61752E20566F72646534
:1044C0007265204B616C69627269657270756E6BA2
:1044D00074652073696E64207A752077656974202D
:1044E0006E61636820766F726E652E004B616C6939
:1044F00062722E2058595A206E6965646F6B6C6128
:10450000646E612E2050727A65646E6965207075E4
:104510006E6B7479206B616C6962722E205A6279BD
:1045200074207779732E20646F2070727A6F6475AF
:104530002E0043616C696272617A696F6E2058590E
:104540005A20636F6D70726F6D65746964612E209F
:1045500050756E746F2064656C616E7465726F73F4
:10456000206E6F20616C63616E7A61626C65732E80
:104570000043616C696272617A696F6E6520585997
:104580005A20636F6D70726F6D657373612E20506A
:10459000756E746920616E746572696F7269206EE0
:1045A0006F6E207261676769756E676962696C69B1
:1045B0002E004B616C6962726163652058595A2004
:1045C0006E65707265736E612E20507265646E69DF
:1045D000206B616C69627261636E6920626F6479DD
:1045E000206D6F63207670726564752E0058595A7D
:1045F0002063616C6962726174696F6E20636F6DB4
:1046000070726F6D697365642E2046726F6E7420D0
:1046100063616C6962726174696F6E20706F696E3C
:104620007473206E6F7420726561636861626C657B
:104630002E0058595A204B616C6962726965727517
:104640006E6720696E204F72646E756E672E2058FB
:104650002F592041636873656E2073696E6420650D
:1046600074776173207363686965662E004B616CB3
:1046700069627261636A612058595A207072617769
:1046800069646C6F77612E204F73696520582F59CC
:10469000206C656B6B6F20736B6F736E652E20449F
:1046A0006F62726120726F626F7461210043616C8E
:1046B0006962726163696F6E2058595A20636F7224
:1046C00072656374612E204C6F7320656A65732078
:1046D00058202F205920657374616E206C696765BE
:1046E00072616D656E746520696E636C696E61647C
:1046F0006F732E204275656E2074726162616A6FFD
:10470000210043616C696272617A696F6E20585949
:104710005A20636F7272657474612E2041737369DD
:1047200020582F59206C65676765726D656E7465DA
:104730002073746F7274692E2042656E20666174F6
:10474000746F21004B616C69627261636520585916
:104750005A207620706F7261646B752E20582F5925
:10476000206F7379206D69726E65207A6B6F736547
:104770006E652E20446F62726120707261636521E4
:104780000058595A2063616C6962726174696F6E76
:1047900020616C6C2072696768742E20582F592034
:1047A000617865732061726520736C696768746CE9
:1047B0007920736B657765642E20476F6F64206A7C
:1047C0006F62210058595A204B616C6962726965A9
:1047D00072756E6720696E204F72646E756E672EFB
:1047E00020536368696566686569742077697264D7
:1047F000206175746F6D617469736368206B6F728B
:10480000726967696572742E004B616C69627261CE
:10481000636A612058595A207072617769646C6FBD
:1048200077612E20536B6F7379206265646120611C
:1048300075746F6D617479637A6E696520777972CA
:104840006F776E616E652070727A79206472756B15
:10485000752E0043616C6962726163696F6E2058E6
:10486000595A20636F7272656374612E204C612007
:10487000696E636C696E6163696F6E207365206336
:104880006F72726567697261206175746F6D6174B2
:104890006963616D656E74652E0043616C69627257
:1048A000617A696F6E2058595A20636F727265740D
:1048B00074612E204C6120646973746F7273696F28
:1048C0006E6520766572726127206175746F6D6107
:1048D000746963616D656E746520636F6D70656E7C
:1048E000736174612E004B616C6962726163652053
:1048F00058595A207620706F7261646B752E205A59
:104900006B6F73656E692062756465206175746F85
:104910006D617469636B79207679726F766E616E02
:104920006F20707269207469736B752E0058595A24
:104930002063616C6C6962726174696F6E20616C76
:104940006C2072696768742E20536B6577207769D5
:104950006C6C20626520636F72726563746564209D
:104960006175746F6D61746963616C6C792E005848
:10497000595A2D4B616C696272696572756E672058
:104980006665686C67657363686C6167656E2E2029
:104990004265642D4B616C69627269657270756EF7
:1049A0006B74206E6963687420676566756E6465F4
:1049B0006E2E004B616C6962722E2058595A206E1F
:1049C00069657564616E612E204B616C696272610C
:1049D00063796A6E792070756E6B7420706F646B8A
:1049E0006C61646B69206E69657A6E616C657A6969
:1049F0006F6E792E0043616C6962726163696F6EDC
:104A00002058595A2066616C6C6164612E20507583
:104A10006E746F732064652063616C696272616398
:104A2000696F6E20656E206C612063616D61206E20
:104A30006F20656E636F6E747261646F732E0043D6
:104A4000616C696272617A696F6E652058595A208B
:104A500066616C6C6974612E20496C2070756E748F
:104A60006F2064692063616C696272617A696F6E3C
:104A7000652073756C206C6574746F206E6F6E208A
:104A8000652720737461746F2074726F7661746F20
:104A90002E004B616C6962726163652058595A201F
:104AA00073656C68616C612E204B616C6962726128
:104AB000636E6920626F6420706F646C6F7A6B79CB
:104AC000206E656E616C657A656E2E0058595A20AD
:104AD00063616C6962726174696F6E206661696C92
:104AE00065642E204265642063616C696272617442
:104AF000696F6E20706F696E7420776173206E6FBE
:104B00007420666F756E642E0058595A2D4B616C77
:104B1000696272696572756E67206F6B2E20582FFF
:104B2000592D41636873656E2073696E6420696DE9
:104B3000204C6F742E20476C7565636B77756E73B0
:104B4000636821004B616C69627261636A6120581D
:104B5000595A206F6B2E204F73696520582F5920AA
:104B600073612070726F73746F7061646C652E2056
:104B700047726174756C61636A65210043616C6999
:104B800062726163696F6E2058595A206F6B2E20D4
:104B9000456A657320582F592070657270656E6480
:104BA0006963756C617265732E2046656C69636913
:104BB000746163696F6E6573210043616C69627231
:104BC000617A696F6E652058595A204F4B2E2047E5
:104BD0006C69206173736920582F5920736F6E6F51
:104BE0002070657270656E6469636F6C6172692EA6
:104BF00020436F6D706C696D656E746921004B6147
:104C00006C6962726163652058595A207620706F12
:104C10007261646B752E20582F59206F7379206A4A
:104C2000736F75206B6F6C6D652E204772617475A4
:104C30006C756A69210058595A2063616C69627207
:104C40006174696F6E206F6B2E20582F5920617828
:104C50006573206172652070657270656E6469634A
:104C6000756C61722E20436F6E67726174756C6132
:104C700074696F6E73210058595A2D4B616C6962CB
:104C800072696572756E67206665686C67657363C7
:104C9000686C6167656E2E20426974746520736369
:104CA000686175656E2053696520696E2064617363
:104CB0002048616E64627563682E004B616C6962A6
:104CC0007261636A612058595A206E6965706F7706
:104CD0006965647A696F6E612E20537072617764C2
:104CE0007A6963207720696E737472756B636A6981
:104CF0002E0043616C6962726163696F6E2058595E
:104D00005A2066616C6C6164612E20436F6E73750E
:104D10006C74617220656C206D616E75616C2070C1
:104D20006F72206661766F722E0043616C696272E9
:104D3000617A696F6E652058595A2066616C6C699A
:104D400074612E2053692070726567612064692048
:104D5000636F6E73756C7461726520696C206D6130
:104D60006E75616C652E004B616C69627261636582
:104D70002058595A2073656C68616C612E204E6111
:104D8000686C65646E65746520646F206D616E7516
:104D9000616C752E0058595A2063616C69627261AA
:104DA00074696F6E206661696C65642E20506C6555
:104DB00061736520636F6E73756C74207468652011
:104DC0006D616E75616C2E0058595A2D4B616C697E
:104DD0006272696572756E67206665686C67657377
:104DE00063686C6167656E2E204C696E6B6572201E
:104DF000766F726465726572204B616C696272696C
:104E0000657270756E6B7420697374207A75207783
:104E1000656974206E61636820766F726E652E001E
:104E20004B616C6962722E2058595A206E69657503
:104E300064616E612E204C6577792070727A6564AA
:104E40006E692070756E6B74207A62797420646F5D
:104E50002070727A6F64752E205779726F776E6149
:104E600063206472756B61726B652E0043616C69BF
:104E700062726163696F6E2058595A2066616C6C6A
:104E800061642E2050756E746F2064656C616E7461
:104E900065726F20697A7175696572646F206E6FD3
:104EA00020616C63616E7A61626C652E0043616C97
:104EB000696272617A696F6E652058595A2066611D
:104EC0006C6C6974612E2050756E746F20616E7405
:104ED0006572696F72652073696E697374726F2091
:104EE0006E6F6E207261676769756E676962696C63
:104EF000652E004B616C6962726163652058595A76
:104F00002073656C68616C612E204C657679207029
:104F10007265646E6920626F64206D6F63207670C5
:104F2000726564752E2053726F766E656A746520A3
:104F30007469736B61726E752E0058595A206361E3
:104F40006C6962726174696F6E206661696C656418
:104F50002E204C6566742066726F6E742063616CDF
:104F60006962726174696F6E20706F696E74206E11
:104F70006F7420726561636861626C652E005859B8
:104F80005A2D4B616C696272696572756E67206635
:104F900065686C67657363686C6167656E2E205623
:104FA0006F7264657265204B616C696272696572CB
:104FB00070756E6B74652073696E64207A752077E6
:104FC000656974206E61636820766F726E652E006D
:104FD0004B616C6962722E2058595A206E69657552
:104FE00064616E612E2050727A65642E2070756E39
:104FF0006B7479206B616C6962722E207A627974AD
:1050000020646F2070727A6F64752E205779726FEA
:10501000776E6163206472756B61726B652E0043FD
:10502000616C6962726163696F6E2058595A2066BB
:10503000616C6C61642E2050756E746F2064656CB9
:10504000616E7465726F73206E6F20616C63616E48
:105050007A61626C65732E0043616C696272617A79
:10506000696F6E652058595A2066616C6C6974616D
:105070002E2050756E746920616E746572696F724E
:1050800069206E6F6E207261676769756E6769620D
:10509000696C692E004B616C6962726163652058AE
:1050A000595A2073656C68616C612E20507265647A
:1050B0006E69206B616C69627261636E6920626FF8
:1050C0006479206D6F63207670726564752E20534D
:1050D000726F766E656A7465207469736B61726E47
:1050E000752E0058595A2063616C69627261746947
:1050F0006F6E206661696C65642E2046726F6E74F7
:105100002063616C6962726174696F6E20706F698F
:105110006E7473206E6F7420726561636861626C77
:10512000652E005A2D4B616C696272696572756EED
:1051300067206665686C67657363686C672E2053CB
:10514000656E736F72206E6963687420616E676547
:105150007363686C6F7373656E2E2057617274652C
:10516000206175662052657365742E004B616C6911
:10517000627261636A61206E69657564616E612E39
:105180002053656E736F72206F646C61637A6F6E0B
:1051900079206C75622075737A6B6F647A2E206B40
:1051A0006162656C2E20437A656B616D206E6120B3
:1051B00072657365742E004E6976656C6163696F04
:1051C0006E2066616C6C6164612E2053656E736F36
:1051D0007220646573636F6E65637461646F206FC2
:1051E000206361626C65732064616E61646F732E0D
:1051F000204573706572616E646F207265736574AB
:105200002E004C6976656C6C616D656E746F206CF8
:105210006574746F2066616C6C69746F2E205365C1
:105220006E736F726520646973636F6E2E206F20DA
:105230004361766F2044616E6E2E20496E2061744A
:10524000746573612064692072657365742E004B08
:10525000616C696272616365205A2073656C686174
:105260006C612E2053656E736F72206A65206F64C7
:10527000706F6A656E79206E65626F2070726572FC
:105280007573656E79206B6162656C2E2043656B6A
:10529000616D206E612072657365742E00426564D5
:1052A000206C6576656C696E67206661696C656403
:1052B0002E2053656E736F7220646973636F6E6E18
:1052C0006563746564206F72206361626C6520623F
:1052D000726F6B656E2E2057616974696E67206608
:1052E0006F722072657365742E005A2D4B616C2E9F
:1052F000206665686C67657363686C672E2053650C
:105300006E736F72206E6963687420617573676570
:105310006C6F6573742E205363686D75747A6520A5
:1053200044756573653F20576172746520617566C9
:1053300020525354004B616C69627261636A612050
:105340006E69657564616E612E2053656E736F7250
:10535000206E696520646F746B6E616C2E205A61DB
:105360006E6965637A79737A2E206479737A613F06
:1053700020437A656B616D206E6120726573657480
:105380002E004E6976656C6163696F6E2066616C94
:105390006C6164612E2053656E736F72206E6F2096
:1053A00066756E63696F6E612E204573636F6D6203
:1053B000726F7320656E20426F7175692E3F2045B4
:1053C00073706572616E646F2072657365742E0010
:1053D0004C6976656C6C616D656E746F206C65747C
:1053E000746F2066616C6C69746F2E4E6F526973B6
:1053F0007053656E736F72205265736964756920AE
:105400007375207567656C6C6F3F20496E20617401
:10541000746573612064692072657365742E004B36
:10542000616C696272616365205A2073656C6861A2
:105430006C612E2053656E736F72206E657365709C
:105440006E756C2E205A6E6563697374656E61208B
:10545000747279736B613F2043656B616D206E617F
:105460002072657365742E00426564206C657665F4
:105470006C696E67206661696C65642E2053656E89
:10548000736F72206469646E7420747269676765F3
:10549000722E20446562726973206F6E206E6F7A7F
:1054A0007A6C653F2057616974696E6720666F7218
:1054B0002072657365742E005A2D4B616C6962729F
:1054C000696572756E67206665686C676573636889
:1054D0006C672E2053656E736F72207A7520686F2B
:1054E00063682061757367656C6F6573742E2057F0
:1054F00061727465206175662052657365742E0053
:105500004B616C69627261636A61205A206E6965E1
:105510007564616E612E2053656E736F7220646FC7
:10552000746B2E207A61207779736F6B6F2E204316
:105530007A656B616D206E612072657365742E00F3
:105540004E6976656C6163696F6E2066616C6C6133
:1055500064612E2053656E736F722066756E636989
:105560006F6E612064656D61736961646F2074653D
:105570006D7072616E6F2E204573706572616E641E
:105580006F2072657365742E004C6976656C6C6172
:105590006D656E746F206C6574746F2066616C6CE1
:1055A00069746F2E526973702073656E736F7265C4
:1055B0002074726F70706F2070726573746F496EB3
:1055C0002061747465736120646920726573657409
:1055D0002E004B616C696272616365205A207365AD
:1055E0006C68616C612E2053656E736F72207365F9
:1055F000706E756C207072696C6973207679736F48
:105600006B6F2E2043656B616D206E612072657338
:1056100065742E00426564206C6576656C696E6702
:10562000206661696C65642E2053656E736F72200D
:1056300074726967676572656420746F6F2068694A
:1056400067682E2057616974696E6720666F7220E3
:1056500072657365742E00426564206572776165BA
:10566000726D656E0047727A616E69652073746F42
:105670006C696B612E2E0043616C656E74616E64A3
:105680006F20426173650052697363616C642E2000
:105690006C6574746F005A6168726976616E692016
:1056A000626564004265642048656174696E6700E4
:1056B000426564204F4B0053746F6C696B204F4BF5
:1056C0002E00426173652070726570617261646161
:1056D0000050696174746F20666174746F2E0042AB
:1056E0006564204F4B2E0042656420646F6E650038
:1056F000526563687465205365697465205B756DD8
:105700005D005720707261776F205B756D5D00449E
:105710006572656368612020205B756D5D004C617A
:10572000746F2064657374726F0056707261766F67
:10573000205B756D5D0052696768742073696465EC
:1057400020756D00526573657400527565636B73E7
:105750006569746520205B756D5D00446F20747908
:105760006C7520205B756D5D004174726173202043
:105770002020205B756D5D004C61746F20706F732D
:10578000746572696F726500567A61647520205B7A
:10579000756D5D00526561722073696465202075C6
:1057A0006D00426564206C6576656C204B6F72728B
:1057B000656B74004B6F72656B746120706F646B06
:1057C0006C61646B6900436F72722E206465206C9B
:1057D000612063616D6100436F7272657A2E206C87
:1057E00069762E6C6574746F004B6F72656B6365C0
:1057F00020706F646C6F7A6B7900426564206C6511
:1058000076656C20636F7272656374004C696E6BB1
:105810006520536569746520205B756D5D005720B8
:105820006C65776F20205B756D5D00497A717569D5
:1058300065726461205B756D5D004C61746F2073EF
:10584000696E697374726F00566C65766F20205BA9
:10585000756D5D004C656674207369646520207504
:105860006D00566F726465727365697465205B754F
:105870006D5D00446F2070727A6F6475205B756D8A
:105880005D004164656C616E746520205B756D5DC3
:10589000004C61746F2061746572696F72650056A7
:1058A0007072656475205B756D5D0046726F6E7415
:1058B000207369646520756D0053746F6C696B00AB
:1058C00042617365004C6574746F00426564004406
:1058D00065722041627374616E64207A77697363C4
:1058E00068656E2064657220537069747A652064FF
:1058F000657220447565736520756E6420646572F9
:105900002042656420697374206E6F6368206E693D
:105910006368742065696E67657374656C6C742E5A
:1059200020426974746520666F6C67656E205369E8
:10593000652064656D2048616E64627563682C2023
:1059400046697273742073746570732C2073656379
:1059500074696F6E204669727374206C6179657228
:105960002063616C6962726174696F6E2E004F64AE
:105970006C65676C6F7363206479737A79206F64E8
:1059800020706F646B6C61646B69206E6965206A5E
:1059900065737420736B616C6962726F77616E619D
:1059A0002E20506F73746570756A207A676F646E0D
:1059B0006965207A20696E737472756B636A612001
:1059C000726F7A647A69616C205A61637A796E6168
:1059D0006D792C20706F64726F7A647A69616C20C3
:1059E0004B616C69627261636A612070696572778C
:1059F000737A656A20776172737477792E004469CF
:105A00007374616E63696120656E747265206C6188
:105A10002070756E7461206465206C6120626F7106
:105A200075696C6C612079206C612073757065728A
:105A30006669636965206465206C612063616D61DE
:105A4000206E6F2066696A6164612061756E2E2028
:105A5000506F72206661766F72207369676120658E
:105A60006C206D616E75616C2C206361706974755A
:105A70006C6F2046697273742073746570732C2088
:105A800073656363696F6E204669727374206C611D
:105A90007965722063616C6962726174696F6E2EE0
:105AA0000044697374616E7A6120747261206C6164
:105AB0002070756E74612064656C6C277567656C09
:105AC0006C6F2065206C6120737570657266696308
:105AD00069652064656C206C6574746F206E6F6EF0
